{"abi":[{"type":"function","name":"endGame","inputs":[{"name":"score","type":"uint256","internalType":"uint256"}],"outputs":[],"stateMutability":"nonpayable"},{"type":"function","name":"recordMove","inputs":[{"name":"direction","type":"uint8","internalType":"uint8"},{"name":"x","type":"uint256","internalType":"uint256"},{"name":"z","type":"uint256","internalType":"uint256"}],"outputs":[],"stateMutability":"nonpayable"},{"type":"function","name":"startGame","inputs":[],"outputs":[],"stateMutability":"nonpayable"},{"type":"event","name":"GameOver","inputs":[{"name":"player","type":"address","indexed":true,"internalType":"address"},{"name":"score","type":"uint256","indexed":false,"internalType":"uint256"},{"name":"timestamp","type":"uint256","indexed":false,"internalType":"uint256"}],"anonymous":false},{"type":"event","name":"GameStart","inputs":[{"name":"player","type":"address","indexed":true,"internalType":"address"},{"name":"timestamp","type":"uint256","indexed":false,"internalType":"uint256"}],"anonymous":false},{"type":"event","name":"Move","inputs":[{"name":"player","type":"address","indexed":true,"internalType":"address"},{"name":"direction","type":"uint8","indexed":false,"internalType":"uint8"},{"name":"x","type":"uint256","indexed":false,"internalType":"uint256"},{"name":"z","type":"uint256","indexed":false,"internalType":"uint256"},{"name":"timestamp","type":"uint256","indexed":false,"internalType":"uint256"}],"anonymous":false}],"bytecode":{"object":"0x608060405234801561000f575f80fd5b506103408061001d5f395ff3fe608060405234801561000f575f80fd5b506004361061003f575f3560e01c80637ce4245114610043578063d0399bb81461005f578063d65ab5f21461007b575b5f80fd5b61005d600480360381019061005891906101ee565b610085565b005b6100796004803603810190610074919061023e565b6100de565b005b610083610131565b005b3373ffffffffffffffffffffffffffffffffffffffff167f89c529465952c83d9adb7154d160386107a756c8617d6c56ff52054f97a422ba848484426040516100d19493929190610287565b60405180910390a2505050565b3373ffffffffffffffffffffffffffffffffffffffff167f1b50c41f317db3fa7a72dc1c0120e446244a20ada93b3bbbe43b7197b9c68d7482426040516101269291906102ca565b60405180910390a250565b3373ffffffffffffffffffffffffffffffffffffffff167f8b1f587dbac2c6f91812f1adabed6fdf381a413852ac86c26cb80ee394081a854260405161017791906102f1565b60405180910390a2565b5f80fd5b5f60ff82169050919050565b61019a81610185565b81146101a4575f80fd5b50565b5f813590506101b581610191565b92915050565b5f819050919050565b6101cd816101bb565b81146101d7575f80fd5b50565b5f813590506101e8816101c4565b92915050565b5f805f6060848603121561020557610204610181565b5b5f610212868287016101a7565b9350506020610223868287016101da565b9250506040610234868287016101da565b9150509250925092565b5f6020828403121561025357610252610181565b5b5f610260848285016101da565b91505092915050565b61027281610185565b82525050565b610281816101bb565b82525050565b5f60808201905061029a5f830187610269565b6102a76020830186610278565b6102b46040830185610278565b6102c16060830184610278565b95945050505050565b5f6040820190506102dd5f830185610278565b6102ea6020830184610278565b9392505050565b5f6020820190506103045f830184610278565b9291505056fea26469706673582212202da36f90f0de75bb06a30c2bc2cf37d0a162357a91cad703fb024b1891fac20164736f6c63430008140033","linkReferences":{}},"methodIdentifiers":{"endGame(uint256)":"d0399bb8","recordMove(uint8,uint256,uint256)":"7ce42451","startGame()":"d65ab5f2"},"id":16}